:020000040000FA
:102000000DEF3EF0003000310000FFFFFFFFFFFF4B
:10201000FFFFFFFFFFFFFFFFFFFFFFFFFFFFFFFFD0
:10202000FFFFFFFFFFFFFFFFFFFFFFFFFFFFFFFFC0
:10203000FFFFFFFFFFFFFFFFFFFFFFFFFFFFFFFFB0
:107BC000FFFFFFFFFFFFFFFF3BEC3EF012002DC069
:107BD00025F02EC026F012002DC029F02EC02AF06C
:107BE00012002DC027F02EC028F012002E6E2E504D
:107BF00002EC3EF012006EEC3EF018EC3EF04FEC62
:107C00003EF012002D6E9EA808EF3EF00AEF3EF007
:107C100003EF3EF02DC0ADFF120000EE01F02C0E80
:107C2000EE6AE806FDE1000EF86E0001F4EF3EF0AA
:107C3000700ED36E000ED26E800E9B6E000EB56E6F
:107C4000D2AE25EF3EF027EF3EF020EF3EF01200DF
:107C5000480E486E000E496E000E3E6E000E3F6EDE
:107C600046C040F047C041F0480E426E000E436EE1
:107C70008EEC3EF012009EAA40EF3EF042EF3EF046
:107C80003BEF3EF0000E2C6EABA249EF3EF04BEF07
:107C90003EF04DEF3EF0AB98AB88AE501200080EB0
:107CA000B86E900EAB6E240EAC6EE10EAF6E040E8D
:107CB000B06E000E2D6E000E2E6EECEC3DF0000E40
:107CC0002D6E000E2E6EF1EC3DF0000E2D6E000EAE
:107CD0002E6EE7EC3DF0000E2C6E1200000E8D6E45
:107CE000000E8C6E000E896E000E8A6E000E8B6E7A
:107CF000070E966EFD0E926E9368870E946E9568D1
:107D00000F015E69040E5D6F3F0E5C6F070E5F6FC3
:107D1000290E5B6F000E856EF18E120040C044F09C
:107D200041C045F0A2EF3EF03EC038F03FC039F010
:107D3000440E3A6E000E3B6E42C03CF043C03DF034
:107D4000B5EC3EF044C0F6FF45C0F7FF0800F55023
:107D50000009D8A4AEEF3EF0B0EF3EF094EF3EF055
:107D6000000E3F6E000E3E6E12003AC0D9FF3BC0BF
:107D7000DAFFDECFF6FFDDCFF7FF0800F550250A6A
:107D8000D8A4C5EF3EF0C7EF3EF0DFEF3EF03AC0BB
:107D9000D9FF3BC0DAFFDE2A000EDD22000E226E84
:107DA000000E216E21C02BF0236824683AC0D9FF51
:107DB0003BC0DAFFDE2A000EDD22F3EF3EF03AC0D0
:107DC000D9FF3BC0DAFFDECFF6FFDDCFF7FF0800BB
:107DD000F5502F6E306A38C031F039C032F035ECD2
:107DE0003FF0D6EF3EF01200FBEC3DF0E4EC3DF04E
:107DF0004A6E300E4A18D8A400EF3FF002EF3FF071
:107E000005EF3FF08992F6EF3EF0310E4A18D8A404
:107E10000CEF3FF00EEF3FF011EF3FF08982F6EFED
:107E20003EF03F0E4A18D8A418EF3FF01AEF3FF08B
:107E300031EF3FF080A41FEF3FF021EF3FF029EF3B
:107E40003FF0070E466E200E476E28EC3EF0F6EF30
:107E50003EF0050E466E200E476E28EC3EF0F6EF23
:107E60003EF0F6EF3EF000EF10F031503210D8B493
:107E70003CEF3FF03EEF3FF047EF3FF03150321024
:107E8000D8A445EF3FF047EF3FF04CEF3FF02F50C5
:107E9000F6EC3DF07FEF3FF020EE09F03150D926AF
:107EA0003250DA22DE50DE10D8B459EF3FF05BEFEB
:107EB0003FF076EF3FF020EE09F03150D9263250F6
:107EC000DA2210EE03F03150E1263250E222DE5089
:107ED000E65CE650800A376EDE50800A3758D8B02C
:107EE00074EF3FF076EF3FF07FEF3FF020EE03F0CE
:107EF0003150D9263250DA22DE2A000EDD2212005D
:020000040030CA
:0400000003285F3C36
:0200060081FF78
:020000040020DA
:080000000C0C0D0000000000D3
:00000001FF
