:020000040000FA
:1020000015EF39F000300D0A00310D0A0000FFFF16
:10201000FFFFFFFFFFFFFFFFFFFFFFFFFFFFFFFFD0
:10722000FFFFFFFFFFFFFFFFFFFF426A000EF86E48
:10723000200EF76E000196EF39F09EAA22EF39F08A
:1072400024EF39F01DEF39F0AE501200016E9EA808
:107250002CEF39F02EEF39F027EF39F001C0ADFFF8
:1072600012003DEF39F002C0F6FF03C0F7FF08003F
:10727000F55026EC39F0024A032A02C0F6FF03C09B
:10728000F7FF0800F5500009D8A449EF39F04BEF9B
:1072900039F033EF39F01200949C948E38C001F02D
:1072A00039C002F03AC003F03BC004F0010E79ECA3
:1072B0003AF001C013F002C014F003C015F004C08E
:1072C00016F0000E0F6E1B0E106E370E116E490E6B
:1072D000126E53EC3BF00FC028F010C029F011C023
:1072E0002AF012C02BF0000E2C6E000E2D6E800EB8
:1072F0002E6EBF0E2F6E20EC3DF028C03CF029C052
:107300003DF02AC03EF02BC03FF03CC001F03DC034
:1073100002F03EC003F03FC004F0F6EC39F001503B
:10732000AF6E200EAC6E900EAB6E12000F0EC1123F
:1073300092929284000E896E800E386E250E396E00
:10734000000E3A6E000E3B6E4CEC39F0040E416EAE
:107350000C0E406E340EE82EFED7402EFCD7412E88
:10736000FAD71DEC39F0426E310E4218D8A4BBEFAB
:1073700039F0BDEF39F0BEEF39F08982300E421896
:10738000D8A4C5EF39F0C7EF39F0C8EF39F08992CA
:107390003F0E4218D8A4CFEF39F0D1EF39F0E6EF25
:1073A00039F080A4D6EF39F0D8EF39F0E0EF39F0BA
:1073B000090E026E200E036E31EC39F0E6EF39F063
:1073C000050E026E200E036E31EC39F0070E416E91
:1073D000170E406E6A0EE82EFED7402EFCD7412EC7
:1073E000FAD700D0B1EF39F000EF10F003340434D5
:1073F0000A6E0A50D8A4FFEF39F001EF3AF00BEF14
:107400003AF0000E016E000E026E000E036E000ECA
:10741000046E78EF3AF001C005F002C006F003C038
:1074200007F004C008F0200E1BEF3AF0D8900832A5
:10743000073206320532E82E16EF3AF00550096E93
:10744000038EFF0E0116FF0E0216FF0E0316000E2E
:107450000416960E0A5E0ABE32EF3AF030EF3AF0AA
:1074600048EF3AF00A50800A970FD8B03AEF3AF056
:107470003CEF3AF03EEF3AF001EF3AF0D8900432A8
:107480000332023201320A3E3EEF3AF060EF3AF048
:107490001F0E0A644EEF3AF050EF3AF058EF3AF010
:1074A00001EF3AF0D89001360236033604360A0668
:1074B0000A50D8A45EEF3AF060EF3AF052EF3AF09B
:1074C0000950D8B466EF3AF068EF3AF070EF3AF04E
:1074D000041E031E021E016C000E0222032204225F
:1074E00001C001F002C002F003C003F004C004F0C8
:1074F0001200096E0950D8B480EF3AF082EF3AF0EA
:10750000A4EF3AF004BE89EF3AF087EF3AF0A4EF27
:107510003AF001C005F002C006F003C007F004C055
:1075200008F0051E061E071E081E052A000E06226C
:107530000722082205C00BF006C00CF007C00DF0B2
:1075400008C00EF0ACEF3AF001C00BF002C00CF036
:1075500003C00DF004C00EF001500210031004101F
:10756000D8A4B5EF3AF0B7EF3AF0C1EF3AF0000E19
:10757000016E000E026E000E036E000E046E52EFDE
:107580003BF0960E0A6ECBEF3AF00A2AD8900E32F4
:107590000D320C320B32000E0B14056E000E0C1463
:1075A000066E000E0D14076EFE0E0E14086E0550CA
:1075B000061007100810D8A4E0EF3AF0E2EF3AF016
:1075C000C5EF3AF0F0EF3AF00A2A010E0B26000E52
:1075D0000C220D220E22D8900E320D320C320B32BC
:1075E000000E0B14056E000E0C14066E000E0D142A
:1075F000076EFF0E0E14086E0550061007100810D7
:10760000D8A405EF3BF007EF3BF0E4EF3AF00FEFC3
:107610003BF00A06D8900B360C360D360E360DBEF2
:1076200014EF3BF016EF3BF01EEF3BF0020E0A604A
:107630001CEF3BF01EEF3BF009EF3BF00AB023EFED
:107640003BF025EF3BF026EF3BF00D9ED8900A3241
:107650000AC005F0066A076A086A05C008F0076AEA
:10766000066A056A05500B1206500C1207500D12DF
:1076700008500E120950D8B440EF3BF042EF3BF0F7
:107680004AEF3BF004BE49EF3BF047EF3BF04AEFD7
:107690003BF00E8E0BC001F00CC002F00DC003F0E9
:1076A0000EC004F012001250800B1F6E12501224F4
:1076B000266E11AE5EEF3BF060EF3BF061EF3BF00A
:1076C00026802650D8B467EF3BF069EF3BF07EEFA1
:1076D0003BF02628D8A46FEF3BF071EF3BF079EF39
:1076E0003BF0000E0F6E000E106E000E116E000EBD
:1076F000126E118E000E126E86EF3BF0000E0F6EB2
:10770000000E106E000E116E000E126E1650800BE1
:107710001F1A16501624276E15AE91EF3BF093EF0B
:107720003BF094EF3BF027802750D8B49AEF3BF022
:107730009CEF3BF0B1EF3BF02728D8A4A2EF3BF041
:10774000A4EF3BF0ACEF3BF0000E136E000E146E96
:10775000000E156E000E166E158E000E166EB9EF29
:107760003BF0000E136E000E146E000E156E000E30
:10777000166E1350141015101610D8A4C2EF3BF05B
:10778000C4EF3BF0DCEF3BF0000E0F6E000E106E0E
:10779000000E116E000E126E800E11127F0E12126C
:1077A0001F5012120FC00FF010C010F011C011F0D6
:1077B00012C012F01FEF3DF02650D8A4E2EF3BF0CC
:1077C000E4EF3BF0EEEF3BF0000E0F6E000E106E9C
:1077D000000E116E000E126E1FEF3DF0275026C0F6
:1077E00017F0186A175E000E185A7F0E1724206EC5
:1077F000000E1820216E0FC01BF010C01CF011C02D
:107800001DF012C01EF0000E0F6E000E106E000E66
:10781000116E000E126E000E226E000E236E000E10
:10782000246E000E256E000E276E4FEF3CF02750A1
:10783000D8B41DEF3CF01FEF3CF036EF3CF0D89091
:107840001B361C361D361E36D8900F3610361136B4
:10785000123625AE2EEF3CF030EF3CF031EF3CF02D
:107860000F80D890223623362436253613501B5CE1
:1078700014501C5815501D5816501E58D8A043EFD0
:107880003CF045EF3CF04EEF3CF0258C13501B5E76
:1078900014501C5A15501D5A16501E5A272A190EDC
:1078A000276455EF3CF057EF3CF017EF3CF01B50CE
:1078B0001C101D101E10D8B460EF3CF062EF3CF0BD
:1078C0007AEF3CF022807AEF3CF0D8900F361036F9
:1078D0001136123625AE6FEF3CF071EF3CF072EFCF
:1078E0003CF00F80D89022362336243625362006E9
:1078F000D8A0210611AE7FEF3CF081EF3CF065EFA0
:107900003CF0000E276E25AE88EF3CF08AEF3CF08D
:10791000AEEF3CF0FF0E2214176EFF0E2314186E0C
:10792000FF0E2414196E7F0E25141A6E17501810AE
:1079300019101A10D8B49FEF3CF0A1EF3CF0A5EF5E
:107940003CF0010E276EAEEF3CF00FA0AAEF3CF02A
:10795000ACEF3CF0AEEF3CF0A1EF3CF02750D8B4D8
:10796000B4EF3CF0B6EF3CF0DAEF3CF0010E0F263E
:10797000000E10221122122212A0C1EF3CF0C3EF20
:107980003CF0DAEF3CF00FC017F010C018F011C057
:1079900019F012C01AF01A341A321932183217328A
:1079A00017C00FF018C010F019C011F01AC012F073
:1079B000204A212A21BEE5EF3CF0215008E1202891
:1079C000D8A0E5EF3CF0E7EF3CF0F2EF3CF0000E22
:1079D000216E2068000E0F6E000E106E000E116EEC
:1079E000000E126E21BEFFEF3CF0215006E1200494
:1079F000D8B0FDEF3CF0FFEF3CF00DEF3DF0000E96
:107A0000216E000E206E000E0F6E000E106E000E26
:107A1000116E000E126E000E1F6E20C026F026A002
:107A200014EF3DF016EF3DF019EF3DF0118E1AEF17
:107A30003DF0119ED8902630126ED0EF3BF0120030
:107A40002B50800B346E2B502B24366E2AAE2BEF2E
:107A50003DF02DEF3DF02EEF3DF036803650D8B49E
:107A600034EF3DF036EF3DF04BEF3DF03628D8A433
:107A70003CEF3DF03EEF3DF046EF3DF0000E286E4E
:107A8000000E296E000E2A6E000E2B6E2A8E000E3E
:107A90002B6E53EF3DF0000E286E000E296E000E87
:107AA0002A6E000E2B6E2F50800B356E3450351819
:107AB000D8B45DEF3DF05FEF3DF060EF3DF0348C0A
:107AC0002F502F24356E2EAE68EF3DF06AEF3DF05B
:107AD0006BEF3DF035803550D8B471EF3DF073EF6A
:107AE0003DF088EF3DF03528D8A479EF3DF07BEFED
:107AF0003DF083EF3DF0000E2C6E000E2D6E000E5B
:107B00002E6E000E2F6E2E8E000E2F6E90EF3DF01B
:107B1000000E2C6E000E2D6E000E2E6E000E2F6EBF
:107B20003650355CD8B097EF3DF099EF3DF0C0EF9F
:107B30003DF034AC9EEF3DF0A0EF3DF0A2EF3DF004
:107B4000800E341A36C037F035C036F037C035F005
:107B500028C037F02CC028F037C02CF029C037F0EF
:107B60002DC029F037C02DF02AC037F02EC02AF0E2
:107B700037C02EF02BC037F02FC02BF037C02FF0BE
:107B8000000E376E365035C030F0316A305E000E70
:107B9000315A31BED5EF3DF0315009E11A0E305C5B
:107BA000D8A0D5EF3DF0D7EF3DF00EEF3EF02850D6
:107BB00029102A102B10D8A4E0EF3DF0E3EF3DF0A0
:107BC000010EE4EF3DF0000E376E000E286E000E41
:107BD000296E000E2A6E000E2B6E35C036F017EFA0
:107BE0003EF037A0F6EF3DF0F8EF3DF0FEEF3DF050
:107BF000D89037300109376E00EF3EF0D890373219
:107C000028A005EF3EF007EF3EF008EF3EF0378E7C
:107C10002B342B322A3229322832362A3550365C20
:107C2000D8A015EF3EF017EF3EF0F1EF3DF034BC79
:107C30001CEF3EF01EEF3EF05EEF3EF03650D8A453
:107C400024EF3EF026EF3EF030EF3EF0000E286EBF
:107C5000000E296E000E2A6E000E2B6E7FEF3FF095
:107C60002C5028262D5029222E502A222F502B22EC
:107C70002BA03DEF3EF03FEF3EF0EBEF3EF037A0A4
:107C800044EF3EF046EF3EF04CEF3EF0D8903730F8
:107C90000109376E4EEF3EF0D890373228A053EFEF
:107CA0003EF055EF3EF056EF3EF0378E2B342B3240
:107CB0002A3229322832362AEBEF3EF02C50285C4B
:107CC0002D5029582E502A582B50800A306E2F5094
:107CD000800A3058D8B06FEF3EF071EF3EF09CEF65
:107CE0003EF028502C5C306E29502D58316E2A50B1
:107CF0002E58326E2B502F58336EFF0E3024286EC4
:107D0000FF0E3120296EFF0E32202A6EFF0E332027
:107D10002B6E800E341A376C3750D8A492EF3EF099
:107D200094EF3EF0A4EF3EF0010E2826000E29222B
:107D30002A222B22A4EF3EF02C50285E2D50295AE7
:107D40002E502A5A2F502B5A285029102A102B1007
:107D5000D8A4ADEF3EF0AFEF3EF0E4EF3EF0375089
:107D6000D8A4B5EF3EF0B7EF3EF0E4EF3EF0000EE2
:107D7000286E000E296E000E2A6E000E2B6E7FEF0D
:107D80003FF0D890283629362A362B3637AECBEF3F
:107D90003EF0CDEF3EF0CEEF3EF0288037A0D3EF9F
:107DA0003EF0D5EF3EF0D9EF3EF0D8803736DBEF2E
:107DB0003EF0D89037363650D8B4E1EF3EF0E3EFDE
:107DC0003EF0E4EF3EF036062AAEE9EF3EF0EBEF90
:107DD0003EF0C1EF3EF0000E356E37AEF2EF3EF0F2
:107DE000F4EF3EF00CEF3FF037C030F07F0E30166E
:107DF000D8B4FDEF3EF0FFEF3EF003EF3FF0010E91
:107E0000356E0CEF3FF028A008EF3FF00AEF3FF08F
:107E10000CEF3FF0FFEF3EF03550D8B412EF3FF0DB
:107E200014EF3FF03FEF3FF0010E2826000E29220D
:107E30002A222B222BA01FEF3FF021EF3FF03FEF34
:107E40003FF028C030F029C031F02AC032F02BC0FA
:107E500033F03334333232323132303230C028F002
:107E600031C029F032C02AF033C02BF03628D8B404
:107E70003CEF3FF03EEF3FF03FEF3FF0362A362831
:107E8000D8B445EF3FF047EF3FF04FEF3FF03650AB
:107E9000D8A44DEF3FF04FEF3FF061EF3FF0000E01
:107EA000286E000E296E000E2A6E000E2B6E3650C4
:107EB000D8A45DEF3FF05FEF3FF061EF3FF0000EC1
:107EC000346E36A066EF3FF068EF3FF06BEF3FF0A7
:107ED0002A8E6CEF3FF02A9ED89036302B6E34AE4F
:107EE00074EF3FF076EF3FF077EF3FF02B8E28C036
:107EF00028F029C029F02AC02AF02BC02BF012004C
:020000040030CA
:08000000000E181EFF8181FFB4
:020000040020DA
:0800000001090F0B00000000D4
:00000001FF
